:100000000C9460030C947D030C947D030C947D038D
:100010000C947D030C947D030C947D030C947D0360
:100020000C947D030C947D030C947D030C947D0350
:100030000C947D030C947D030C947D030C947D0340
:100040000C947D030C947D030C947D030C947D0330
:100050000C947D030C947D030C947D030C947D0320
:100060000C947D030C947D030C947D030C947D0310
:1000700000000000005C00000C000C007C287C28C4
:1000800058DC68002410480028542840000C000068
:10009000007884008478000054385400107C1000EC
:1000A00080400000101010000040000060100C00A4
:1000B00038543800487C40004864580044542C00B0
:1000C0001C107C005C5424003854240064140C0080
:1000D00068542C0048543800004800008048000054
:1000E0001028440028282800442810000454080040
:1000F00038445C00781478007C5428003844280088
:100100007C4438007C5444007C140400384474005F
:100110007C107C00447C440020403C007C106C003F
:100120007C4040007C187C0078103C00384438004B
:100130007C1408003844B8007C146800485424003B
:10014000047C04007C407C003C603C007C307C00F3
:100150006C106C000C700C0064544C00007C44006B
:100160000C106000447C00000804080080808000BF
:1001700000040800304878007C48300030484800CF
:1001800030487C00306850001078140090A8780047
:100190007C08700050744000808074007C106800FF
:1001A000447C4000781078007808700030483000B7
:1001B000F82810003048F80078100800505828003F
:1001C000083C4800384078003840380078207800F3
:1001D0004830480098A0780048685800107884009B
:1001E000007C00008478100008040804000000006F
:1001F0000000005F00000007000700147F147F1458
:10020000242A7F2A1223130864623649552250009B
:1002100005030000001C2241000041221C00082AA6
:100220001C2A0808083E080800503000000808088A
:100230000808006060000020100804023E51494593
:100240003E00427F400042615149462141454B31C9
:100250001814127F1027454545393C4A4949300159
:10026000710905033649494936064949291E0036B0
:100270003600000056360000000814224114141401
:10028000141441221408000201510906324979412F
:100290003E7E1111117E7F494949363E414141223E
:1002A0007F4141221C7F494949417F090901013EA3
:1002B000414151327F0808087F00417F41002040C2
:1002C000413F017F081422417F404040407F0204AB
:1002D000027F7F0408107F3E4141413E7F090909AA
:1002E000063E4151215E7F09192946464949493157
:1002F00001017F01013F4040403F1F2040201F7F00
:100300002018207F631408146303047804036151E8
:1003100049454300007F4141020408102041417FCC
:100320000000040201020440404040400001020479
:100330000020545454787F4844443838444444207E
:10034000384444487F3854545418087E0901020840
:100350001454543C7F0804047800447D400020403D
:10036000443D00007F10284400417F40007C041879
:1003700004787C0804047838444444387C14141409
:1003800008081414187C7C080404084854545420A9
:10039000043F4440203C4040207C1C2040201C3C2A
:1003A0004030403C44281028440C5050503C446499
:1003B000544C44000836410000007F0000004136E4
:1003C000080002010302010000000000000000001C
:1003D000065F5F0600000000070700070700001423
:1003E0007F7F147F7F1400242E6B6B3A120000462F
:1003F0006630180C666200307A4F5D377A48000428
:1004000007030000000000001C3E634100000000E4
:1004100041633E1C000000082A3E1C1C3E2A0808BE
:10042000083E3E0808000000A0E060000000000850
:100430000808080808000000006060000000006074
:1004400030180C060301003E7F594D7F3E000042EC
:10045000427F7F40400000627359496F660000226E
:100460006349497F360000181C16137F7F10002750
:100470006745457D3900003C7E4B497930000003DB
:100480006371190F070000367F49497F3600000667
:100490004F49693F1E000000006C6C000000000026
:1004A000A0EC6C00000000081C3663410000001442
:1004B00014141414140000004163361C08000002D8
:1004C0000351590F0600003E7F415D5D1F1E007CF9
:1004D0007E13137E7C0000417F7F49497F36001CDC
:1004E0003E634141632200417F7F41637F1C0041A5
:1004F0007F7F495D416300417F7F491D0103001CEF
:100500003E6341517372007F7F08087F7F000000C7
:10051000417F7F41000000307040417F3F0100413A
:100520007F7F081C776300417F7F41406070007FC0
:100530007F060C067F7F007F7F060C187F7F001CE4
:100540003E6341633E1C00417F7F49090F06001E48
:100550003F21717F5E0000417F7F19396F46002681
:10056000674D597B32000003417F7F410300007FCC
:100570007F40407F7F00001F3F60603F1F00007F83
:100580007F3018307F7F0063771C081C776300077B
:100590004F78784F0700006773594D47637100002B
:1005A0007F7F41410000000103060C18306000000D
:1005B00041417F7F000000080C0603060C08008004
:1005C000808080808080800000030704000000207D
:1005D0007454543C784000413F7F44447C38003898
:1005E0007C44446C280000307848493F7F40003804
:1005F0007C54545C180000487E7F49030200009838
:10060000BCA4A4F87C0400417F7F08047C7800002F
:10061000447D7D4000000040C484FD7D0000004119
:100620007F7F10386C440000417F7F400000007CD9
:100630007C0C180C7C78007C7C04047C78000038EE
:100640007C44447C38000084FCF8A4243C18001846
:100650003C24A4F8FC8400447C78441C1800004826
:100660005C54547424000000043E7F442400003C89
:100670007C40403C7C40001C3C60603C1C00003CDA
:100680007C6030607C3C00446C3810386C44009CCA
:10069000BCA0A0FC7C00004C64745C4C64000008AE
:1006A000083E7741410000000000777700000041DC
:1006B00041773E0808000002030103020301000025
:1006C00011241FBECFEFD4E0DEBFCDBF12E0A0E00B
:1006D000B1E0EAE5FEE102C005900D92A83FB10746
:1006E000D9F723E0A8EFB2E001C01D92A230B20713
:1006F000E1F70E947F030C942B0F0C940000CF9322
:10070000DF93CDB7DEB72B970FB6F894DEBF0FBEE1
:10071000CDBF8FE190E00E94DE0364EF73E085EED1
:1007200093E00E94800A0E941E040E94E8040E9436
:10073000C0060E94B8092FEF8FE791E0215080405A
:100740009040E1F700C000C080E40E941C098BE0EB
:10075000EAE0F1E0DE01119601900D928A95E1F751
:100760000F2EF1E4EF2EF1E0FF2EF02D0BE411E05F
:10077000CE0101960E942209CE0101960E946C09C9
:1007800085E191E00E94E10A8A818F9389818F93AC
:10079000FF92EF920E94CB0A8B811F928F931F933F
:1007A0000F930E94CB0A89819A8101969A8389834B
:1007B0000FB6F894DEBF0FBECDBFDACF90BD89B9BA
:1007C00088E18AB98EE880BD0895CF93C82F8A301A
:1007D00039F05D9BFECFCCB990E080E0CF910895D9
:1007E0008DE00E94E503F5CF5F9BFECF8CB190E0DA
:1007F000089582E086B987B991E09BBB2FE73AE183
:1008000096E0215030409040E1F700C0000017B85A
:100810002FE73AE196E0215030409040E1F700C0E8
:10082000000095E59BBB2FE73AE196E02150304070
:100830009040E1F700C0000087B9089585B780684F
:1008400085BF80B7806280BF0895CF92DF92EF921C
:10085000FF920F931F93CF93DF9389E591E00E945E
:10086000E10A0E94700A6C010E94750AD0E0C0E0A3
:1008700010E000E00F2EF0E7EF2EF1E0FF2EF02D5C
:1008800005C02196C11598E0D907F1F00E94700AC1
:10089000FE01F85E80832081281799F399279F93A2
:1008A0008F931F922F93DF93CF93FF92EF920E942B
:1008B000CB0A0F5F1F4F8DB79EB708960FB6F894FF
:1008C0009EBF0FBE8DBFDDCFC6010E94750AD0E06E
:1008D000C0E0F12CE12C0F2EFAEACF2EF1E0DF2E52
:1008E000F02D05C02196C11598E0D907F1F00E94BE
:1008F000700AFE01F85E20812817A1F399279F93C3
:100900008F931F922F93DF93CF93DF92CF920E940A
:10091000CB0A8FEFE81AF80A8DB79EB708960FB684
:10092000F8949EBF0FBE8DBFDDCFFF92EF921F9355
:100930000F9388EE91E09F938F930E94CB0A0F90C4
:100940000F900F900F900F900F90DF91CF911F910C
:100950000F91FF90EF90DF90CF900895CF93DF93AA
:1009600085E492E00E94E10AC0E0D0E185EA888354
:10097000E7E9FAE33197F1F700C00000A096C1154E
:10098000F8E1DF07A1F78FE592E00E94E10A8DE62A
:1009900092E00E94E10A85EA8883E7E9FAE3319769
:1009A000F1F700C00000A096C115F0E2DF07A1F743
:1009B00088E892E00E94E10A2FE58AEE90E021505B
:1009C00080409040E1F700C00000DF91CF91089592
:1009D0008D9A8FB581608FBD8EB588608EBD8FB5C5
:1009E00080688FBD8FB58F7B8FBD8EB581608EBDCA
:1009F0008FE790E09BBD8ABDB898C0980895CF93CB
:100A0000DF93CDB7DEB728970FB6F894DEBF0FBEE1
:100A1000CDBFE0E0F0E11082408120910110809193
:100A200003106091021030E03A83298350E05C8328
:100A30004B8370E07E836D8390E098878F833A814B
:100A40005C817E81988528960FB6F894DEBF0FBE34
:100A5000CDBFDF91CF910895EF92FF920F931F9337
:100A6000CF93DF93CDB7DEB760970FB6F894DEBFB4
:100A70000FBECDBF8C017B010E94FF0429873A87FE
:100A80004B875C876D877E878F87988BE985FA8592
:100A90002B853C852E153F05D4F12E193F0944E6E0
:100AA000429FC001439F900D112468EF70E06E19C2
:100AB0007F090E94BB09462FF72EE017F107CCF5FE
:100AC00098012E1B3F0B5CE95203C001539F900D10
:100AD0001124B801675471090E94BB099D853E85A8
:100AE0008F8528893E832887262F372F5F2D692FF2
:100AF0007E81988560960FB6F894DEBF0FBECDBF9D
:100B0000DF91CF911F910F91FF90EF900895C70152
:100B1000821B930B9C014CE94203C001439F900D43
:100B20001124B701635471090E94BB09462FF72EA7
:100B3000C4CFE01BF10B24E62E9FC0012F9F900D28
:100B4000112465EF70E0601B710B0E94BB09C6CFDA
:100B5000CF93DF93CDB7DEB728970FB6F894DEBFFB
:100B60000FBECDBF29833A834B835C8329813A81B1
:100B70008B819C81833391058CF48E3C9F4FCCF00C
:100B800081E090E0233331055CF42E3C3F4F1CF4B0
:100B900090E080E005C084E090E002C082E090E058
:100BA00028960FB6F894DEBF0FBECDBFDF91CF9170
:100BB000089583E090E0F4CF4F925F926F927F921E
:100BC000AF92BF92CF92DF92EF92FF920F931F935B
:100BD000CF93DF93CDB7DEB760970FB6F894DEBF43
:100BE0000FBECDBF04E610E0412C512C3201F12C98
:100BF000E12CD12CC12CB12CA12C0E94FF042987FF
:100C00003A874B875C876D877E878F87988B83ECCD
:100C100099E00197F1F700C0000089859A85A80E38
:100C2000B91E8B859C85C80ED91E8D859E85E80EC4
:100C3000F91E8F859889092E000CAA0BBB0B480E54
:100C4000591E6A1E7B1E01501109B9F683EC99E00A
:100C50000197F1F700C0000083EC99E00197F1F7EC
:100C600000C0000024E630E0C501B9010E94BB09C4
:100C7000B62E7A83C601B9010E94BB09062F7C8378
:100C8000C701B9010E94BB09162F7E83C301B201BF
:100C900024E630E040E050E00E94CF09822F388700
:100CA0002F832B2D3A81402F5C81612F7E81988587
:100CB00060960FB6F894DEBF0FBECDBFDF91CF9127
:100CC0001F910F91FF90EF90DF90CF90BF90AF906A
:100CD0007F906F905F904F90089587B3886187BB36
:100CE00088B3886188BBBD9ABF9ABE988DB1837F57
:100CF0008DB98DB181658DB908958FB9779BFECF80
:100D000008958FB9779BFECF8FB108958FEF8FB97C
:100D1000779BFECF8FB108959C014423E9F0FB013E
:100D2000DC014150CB010196480F592F511D8FEF27
:100D300005C031961196E417F50771F0982F21152B
:100D4000310509F09C919FB9779BFECF6115710524
:100D500081F39FB19083EDCF089598B39A6198BBCA
:100D600098B321E030E002C0220F331F8A95E2F7EA
:100D70002095292328BB089588B38A6188BB0895EC
:100D80000895FF920F931F93CF93DF93009709F479
:100D900053C0EC0184E00E94AD0684E00E9481060D
:100DA0008AE18A95F1F700C080E00E948106F82E62
:100DB00083E08A95F1F7000080E00E948106082F09
:100DC00083E08A95F1F7000080E00E948106182FE9
:100DD0000E94BC068881F0FA80F9F1FA81F9F2FAF2
:100DE00082F9F3FA83F9F4FA84F9F5FA85F988833C
:100DF000998100FB90F901FB91F902FB92F903FB49
:100E000093F904FB94F905FB95F906FB96F9998390
:100E10008A8114FB84F912FB82F913FB83F911FB1D
:100E200081F910FB80F98A8390E080E0DF91CF9117
:100E30001F910F91FF9008958FEF9FEFF7CFCF9302
:100E4000C82FC29883E00E94AD068C2F0E947D06B9
:100E50000E94BC06CF910895806B90E00E941F070E
:100E60000895CF93C82F8F7090E00E941F07C295FE
:100E7000CF70C0618C2F90E00E941F07CF91089522
:100E8000CF93C62F0E942C078C2F0E943107CF9141
:100E9000089560E080E00E9440070895CF93C82F36
:100EA000C29A83E00E94AD0689EF90E00197F1F7C6
:100EB00000C000008C2F0E947D060E94BC06CF91CE
:100EC0000895CF93DF930E944907D0E08D2F0E94B1
:100ED0002C07C0E080E00E944E07CF5FC038D1F7FA
:100EE000DF5FD83099F7DF91CF910895BA9A8EEAF3
:100EF00090E00E941F0781EA90E00E941F0788ECA3
:100F000090E00E941F0780E290E00E941F0782E0AD
:100F100090E00E941F078FEA90E00E941F070E9446
:100F200061070E9449070895CF930E942C0780E033
:100F30000E943107C0E08C2F0E94310780E00E94A0
:100F40004E07CF5FC038B9F7CF9108950F931F9325
:100F5000CF93DF938032D4F0C82F0C2E000CDD0B22
:100F6000A097CE01880F991F880F991FC0E7D0E086
:100F7000C80FD92FD11D8E010C5F1F4FFE01849128
:100F80000E944E072196C017D107C1F7DF91CF917C
:100F90001F910F910895CF93DF93EC0188818823EF
:100FA00031F021960E94A60789918111FBCFDF9134
:100FB000CF910895CF93DF93D82FC0E06EE68C2FAA
:100FC0000E944007DC1749F080E20E94A607CF5F2D
:100FD000C430A1F7DF91CF9108958CE30E94A6075A
:100FE000F6CFB8980E94490787E992E00E94CB07A4
:100FF00060E081E00E9440078EE992E00E94CB070A
:1010000060E082E00E94400785EA92E00E94CB0700
:1010100060E083E00E9440078CEA92E00E94CB07E8
:1010200008954F925F926F927F928F929F92AF92AC
:10103000BF92CF92DF92EF92FF920F931F93CF93C5
:10104000DF93CDB7DEB728970FB6F894DEBF0FBE9B
:10105000CDBFC82EA62E80E00E94DA07712CB12CDD
:10106000D12C55245394412C0F2EF7EB8F2EF2E008
:101070009F2EF02D1EC083EB92E00E94E10A83ECCC
:1010800099E00197F1F700C0000092E0971508F091
:1010900073941F927F929F928F920E94CB0A872D0A
:1010A0000E94DA070F900F900F900F90642C01C0F0
:1010B000652CB09B36C0B501C6010E942C05298362
:1010C0003A834B835C836D837E838F83988783EC25
:1010D00099E00197F1F700C00000750186012981B0
:1010E0003A814B815C816D817E818F8198850E94E0
:1010F000A805E3ECF9E03197F1F700C00000843077
:101100009105B1F26620A9F28330910509F4B3CFBD
:10111000029779F671107A94872D0E94DA07642C71
:10112000C8CF872D28960FB6F894DEBF0FBECDBF6F
:10113000DF91CF911F910F91FF90EF90DF90CF90B3
:10114000BF90AF909F908F907F906F905F904F90E7
:101150000895CF93C82FC19883E00E947D068C2FFD
:101160000E947D060E948606C19ACF910895CF9372
:10117000DF93D82FC62FC19882E00E947D068D2F65
:101180000E947D068C2F0E947D06C19ADF91CF912F
:101190000895833091057CF4C198009739F081302F
:1011A000910551F0029719F424E201C021E2822F47
:1011B0000E947D06C19A089522E2F9CF1F93CF9332
:1011C000DF93182FD62FC42FC19885E00E947D068B
:1011D000812F0E947D068D2F0E947D068C2F0E94FC
:1011E0007D06C19ADF91CF911F910895C19880EC3F
:1011F0000E947D06C19A08950E946D060E94F6081D
:1012000083EC99E00197F1F700C000008EE00E94A6
:10121000A908807E803831F085EC92E00E94E10AD6
:1012200081E0089580E00895C19880EA0E947D06DB
:101230000E948606C19A0895482F60EE8FE00E94B2
:10124000DE080895CF92DF92EF92FF920F931F93E3
:10125000CF937C01FC0160817181769567957695CD
:1012600067957695679581E30E94B708F7016081DD
:101270006295660F607E81E30E94B708F701628184
:1012800085E30E94B708F70182818823C9F08701AE
:101290000D5F1F4FC6E38DEF9FEF6C01CE18DF0887
:1012A000F80161918F018C2F0E94B708CF5FF70181
:1012B0002281C601800F911F2817190609F084F7B3
:1012C00090E080E00E94C908CF911F910F91FF909C
:1012D000EF90DF90CF9008950F931F93CF938C01E1
:1012E00081E60E94A908C82F82E60E94A90898E01A
:1012F000899F900111248C2F829586958770820F8B
:10130000932F911DF8019183808385E60E94A9089F
:10131000F8018283882371F0C0E086E68C0F0E947A
:10132000A908F801EC0FF11D8383CF5FF8018281DA
:10133000C81798F3CF911F910F9108950E94F60856
:1013400080E80E941C0963E08AE20E94B70860E915
:1013500089E20E94B70862E088E20E94B70863E071
:101360008BE20E94B70880E40E941C0981E0089586
:101370000E949E09089597FB072E16F4009407D04B
:1013800077FD09D00E94EE0907FC05D03EF4909548
:1013900081959F4F0895709561957F4F0895052E13
:1013A00097FB1EF400940E94E60957FD07D00E94A7
:1013B000020A07FC03D04EF40C94E60950954095C0
:1013C000309521953F4F4F4F5F4F089590958095F1
:1013D000709561957F4F8F4F9F4F0895AA1BBB1B40
:1013E00051E107C0AA1FBB1FA617B70710F0A61B25
:1013F000B70B881F991F5A95A9F780959095BC0146
:10140000CD010895A1E21A2EAA1BBB1BFD010DC040
:10141000AA1FBB1FEE1FFF1FA217B307E407F507A4
:1014200020F0A21BB30BE40BF50B661F771F881F80
:10143000991F1A9469F760957095809590959B0116
:10144000AC01BD01CF0108958F929F92AF92BF92E0
:10145000CF92DF92EF92FF92CF93DF93EC016881FE
:1014600079818A819B81611571058105910521F43E
:1014700064E279ED8BE597E02DE133EF41E050E058
:101480000E94CF0949015A019B01AC01A7EAB1E4CE
:101490000E94D20E6B017C01ACEEB4EFA501940169
:1014A0000E94E00EDC01CB018C0D9D1DAE1DBF1D09
:1014B000B7FF03C00197A109B04888839983AA8325
:1014C000BB839F77DF91CF91FF90EF90DF90CF901C
:1014D000BF90AF909F908F9008950E94240A089526
:1014E00080E091E00E94240A0895B0E0A0E080939B
:1014F000000190930101A0930201B09303010895AC
:101500000F931F93CF93DF93009759F461157105E3
:1015100041F4F0E0E0E0CF01DF91CF911F910F9116
:1015200008958B01EC016EE070E081E090E00E9494
:10153000E60CFC01892B69F380E883830115110512
:1015400071F01387028781E883838091F80290917C
:10155000F902892B21F4F093F902E093F802209725
:10156000D1F2D187C0878381826083838091FA0220
:101570009091FB02892B79F6F093FB02E093FA023B
:101580008091FC029091FD02892B29F6F093FD02D7
:10159000E093FC02C0CFB0E0A0E0E1EDFAE00C94F3
:1015A000F50EAE014B5F5F4FFA0161917191AF0192
:1015B0008091FA029091FB020E940C0BE2E00C94E5
:1015C000110F0F931F93CF93DF93E091FA02F091E5
:1015D000FB022381EC0110E000E021FD08C00FEFC9
:1015E0001FEF14C00995892B11F00FEF1FEF8991A0
:1015F0006091FA027091FB02DB011896ED91FC916B
:101600008111F0CF8AE00995892B49F7C801DF9154
:10161000CF911F910F910895ABE0B0E0E2E1FBE0C4
:101620000C94E50E7C013B018A01FC0117821682B5
:10163000838181FFC8C1CE0101965C01F7019381CE
:10164000F30193FD859193FF81913F01882309F474
:1016500053C1853239F493FD859193FF81913F0108
:10166000853229F4B70190E00E94440EE7CF912C17
:10167000212C312CFFE1F31538F08B3211F190F46D
:10168000803209F1833229F137FC3CC020ED280F6C
:101690002A3050F536FE20C08AE0989E200D112495
:1016A000922E06C08D3291F0803371F7689430F835
:1016B000F30193FD859193FF81913F018111DACF71
:1016C00021C0689431F8689432F8F2CF689433F806
:1016D000EFCF689434F8ECCFEAE02E9E200D112471
:1016E000222E689435F8E4CF8E3229F436FC04C1FA
:1016F000689436F8DDCF8C3619F4689437F8D8CF73
:101700008836B1F2982F9F7D95549330E0F0833660
:10171000A1F18337C1F1833509F063C02801F2E0FC
:101720004F0E511CF801C080D180692D70E036FC4D
:1017300002C06FEF7FEFC6010E94270E4C01689434
:1017400037F882010AC00C5F1F4FFFE3F98388243A
:101750008394912C6501E89437F833FE2DC0522C08
:101760008114910471F5552009F468CFB70180E226
:1017700090E00E94440E5A94F6CFF801808189834C
:101780000E5F1F4FE4CF2801F2E04F0E511CF8010D
:10179000C080D180692D70E036FC02C06FEF7FEF12
:1017A000C6010E94390E4C018201D5CFB70180E2FB
:1017B00090E00E94440E2A942814190409F0B0F70E
:1017C000CECFF60137FC859137FE81916F01B701CD
:1017D00090E00E94440E51105A94F1E08F1A910843
:1017E000BFCF843619F0893609F077C0F80137FE8B
:1017F0006BC060817181828193810C5F1F4FF32DDB
:10180000FF763F2E97FF09C0909580957095619562
:101810007F4F8F4F9F4F689437F82AE030E0A50143
:101820000E94740EC82ECA188C2C432C36FE0CC095
:10183000E89440F8C91440F434FE05C032FC03C0FB
:10184000F32DFE7E4F2E892C44FE95C0FE01EC0D3B
:10185000F11D8081803309F087C0242D297E422E1E
:10186000842D8870582E43FC95C040FE8FC09C2C60
:10187000821418F42C0C922C981844FE91C0B701D5
:1018800080E390E00E94440E42FE09C088E790E0A9
:1018900041FE02C088E590E0B7010E94440EC914E1
:1018A00008F48AC0CA94D12C9FEFC91AD90ACA0C6D
:1018B000DB1CF60182916F01B70190E00E94440E9B
:1018C000AC14BD04B1F74FCF60817181072E000CBD
:1018D000880B990B0E5F1F4F92CFD32CE894D4F84E
:1018E0002AE030E0853739F1232D297FD22E8F363B
:1018F00001F148F48835A9F0F701868197812B968C
:10190000E2E10C94010F803749F08837A9F7D4FE43
:1019100002C06894D2F820E130E00DC06894D4F899
:10192000F6CF34FE03C0822F8660D82E20E132E04D
:1019300002C028E030E0F801D7FE0FC0608171815D
:10194000828193810C5F1F4FA5010E94740EC82EE7
:10195000CA183D2CE89437F867CF6081718190E018
:1019600080E00E5F1F4FF0CF42FC02C0839478CF1F
:101970008394839475CF842D867809F471CFF6CF44
:10198000B70180E290E00E94440E83948214C0F379
:10199000512C73CF522C5818821408F46ECFF8CF04
:1019A000842D867809F47BCF8BE241FE80E247FCF0
:1019B0008DE2B70190E071CFB70180E390E00E9423
:1019C000440E9A946CCF8FEF9FEF99CF0F931F9394
:1019D000CF93DF93869F8001879F100D969F100DF8
:1019E0001124C8010E94020DEC01009729F0A80102
:1019F00070E060E00E94320ECE01DF91CF911F9126
:101A00000F9108950F931F93CF93DF938230910529
:101A100010F482E090E0E0910003F091010330E0E7
:101A200020E0B0E0A0E0309799F42115310509F4E9
:101A30004AC0281B390B24303105D8F58A819B8197
:101A40006115710589F1FB0193838283FE0111C049
:101A5000408151810281138148175907E0F04817EE
:101A6000590799F4109761F012960C9312971396F8
:101A70001C933296CF01DF91CF911F910F91089562
:101A80000093000310930103F4CF2115310551F0A9
:101A90004217530738F0A901DB019A01BD01DF01AC
:101AA000F801C1CFEF01F9CF9093010380930003B8
:101AB000CDCFFE01E20FF31F8193919322503109A4
:101AC00039832883D7CF2091FE023091FF02232B48
:101AD00041F420910601309107013093FF022093D9
:101AE000FE0220910401309105012115310541F4D8
:101AF0002DB73EB74091080150910901241B350BC9
:101B0000E091FE02F091FF02E217F307A0F42E1B12
:101B10003F0B2817390778F0AC014E5F5F4F241751
:101B2000350748F04E0F5F1F5093FF024093FE02AF
:101B3000819391939FCFF0E0E0E09CCFCF93DF9330
:101B40000097E9F0FC01329713821282A091000302
:101B5000B0910103ED0130E020E01097A1F4208165
:101B60003181820F931F2091FE023091FF022817CE
:101B7000390709F061C0F093FF02E093FE02DF91A4
:101B8000CF910895EA01CE17DF07E8F54A815B811E
:101B90009E0141155105B1F7E901FB83EA834991A3
:101BA0005991C40FD51FEC17FD0761F48081918115
:101BB0000296840F951FE90199838883828193811E
:101BC0009B838A83F0E0E0E012968D919C911397BD
:101BD0000097B9F52D913C911197CD010296820F96
:101BE000931F2091FE023091FF022817390739F622
:101BF000309751F51092010310920003B093FF0249
:101C0000A093FE02BCCFD383C28340815181840F55
:101C1000951FC817D90761F44E5F5F4F888199817E
:101C2000480F591F518340838A819B81938382830C
:101C30002115310509F0B0CFF0930103E0930003C3
:101C40009ECFFD01DC01C0CF13821282D7CFFC01F1
:101C50000590615070400110D8F7809590958E0FD7
:101C60009F1F0895DC0101C06D9341505040E0F783
:101C70000895FC016150704001900110D8F78095E3
:101C800090958E0F9F1F08950F931F93CF93DF930F
:101C9000182F092FEB018B8181FD09C01FEF0FEF7A
:101CA000812F902FDF91CF911F910F91089582FF87
:101CB00014C02E813F818C819D81281739073CF407
:101CC000E881F981CF0101969983888310838E8101
:101CD0009F8101969F838E83E3CFE885F985812FCD
:101CE0000995892BA1F3DACFFA01AA27283051F1FF
:101CF000203181F1E8946F936E7F6E5F7F4F8F4F3D
:101D00009F4FAF4FB1E03ED0B4E03CD0670F781F9B
:101D1000891F9A1FA11D680F791F8A1F911DA11D80
:101D20006A0F711D811D911DA11D20D009F46894B9
:101D30003F912AE0269F11243019305D3193DEF661
:101D4000CF010895462F4770405D4193B3E00FD017
:101D5000C9F7F6CF462F4F70405D4A3318F0495D02
:101D600031FD4052419302D0A9F7EACFB4E0A695E5
:101D70009795879577956795BA95C9F70097610507
:101D8000710508959B01AC010A2E0694579547955D
:101D900037952795BA95C9F7620F731F841F951F52
:101DA000A01D08950E941C0FA59F900DB49F900D3B
:101DB000A49F800D911D11240895B7FF0C94D20E9D
:101DC0000E94D20E821B930B08952F923F924F9246
:101DD0005F926F927F928F929F92AF92BF92CF92BB
:101DE000DF92EF92FF920F931F93CF93DF93CDB7C4
:101DF000DEB7CA1BDB0B0FB6F894DEBF0FBECDBF3C
:101E000009942A88398848885F846E847D848C840C
:101E10009B84AA84B984C884DF80EE80FD800C8115
:101E20001B81AA81B981CE0FD11D0FB6F894DEBFF8
:101E30000FBECDBFED010895A29FB001B39FC001B9
:101E4000A39F700D811D1124911DB29F700D811DE6
:0A1E50001124911D0895F894FFCFAE
:101E5A0001000000000002032000010001680000E8
:101E6A00000000000048656973616E6E2073766534
:101E7A006973616E6E2C207669206861722066C370
:101E8A00A57474206569206D656C64696E672E0D92
:101E9A000049643A202575200D0A004C656E676476
:101EAA00653A202575200D0A005374617274696EB3
:101EBA0067205352414D20746573742E2E2E0D00E7
:101ECA005772697465207068617365206572726FF4
:101EDA00723A206578745F72616D5B2534645D20A7
:101EEA003D2025303258202873686F756C64206253
:101EFA00652025303258290D0A00526574726965C9
:101F0A0076616C207068617365206572726F723ACF
:101F1A00206578745F72616D5B2534645D203D20B5
:101F2A0025303258202873686F756C6420626520EA
:101F3A0025303258290D0A005352414D20746573D9
:101F4A007420636F6D706C6574656420776974685A
:101F5A00200D0A253464206572726F727320696ECF
:101F6A0020777269746520706861736520616E6498
:101F7A00200D0A253464206572726F727320696EAF
:101F8A002072657472696576616C20706861736528
:101F9A000D0A0D0A0054657374696E67206D656DCC
:101FAA006F727920726567696F6E20414443004100
:101FBA004443207465737420646F6E6500546573BE
:101FCA0074696E67206D656D6F72792072656769D5
:101FDA006F6E205352414D005352414D2074657328
:101FEA007420646F6E65006C696E652031006C69DF
:101FFA006E652032006C696E652033006C696E650F
:10200A002034006F7070006D656E755F706F733A83
:10201A0020256420004D4350323531352069732024
:10202A004E4F5420696E20636F6E666967757261E0
:10203A0074696F6E206D6F646520616674657220C5
:08204A0072657365742100004A
:00000001FF
