:100000000C9438000C9455000C9455000C94550039
:100010000C9455000C9455000C9455000C9455000C
:100020000C9455000C9455000C9455000C945500FC
:100030000C9455000C9455000C9455000C945500EC
:100040000C9455000C9455000C9455000C945500DC
:100050000C9455000C9455000C9455000C945500CC
:100060000C9455000C9455000C9455000C945500BC
:1000700011241FBECFEFD4E0DEBFCDBF12E0A0E061
:10008000B1E0EAE6F1E102C005900D92AC38B107AB
:10009000D9F722E0ACE8B2E001C01D92A639B20760
:1000A000E1F70E9457000C94B3080C940000CF9322
:1000B000DF93CDB7DEB728970FB6F894DEBF0FBE3B
:1000C000CDBF8FE190E00E94AD006BEC70E08CEB57
:1000D00090E00E9408040E94F9000E9400010E9422
:1000E000C3010F2EFAE0EF2EF1E0FF2EF02D0DE20E
:1000F00011E06DE970E082EA90E00E940702298336
:100100003A834B835C836D837E838F8398875F9371
:100110008B818F938A818F9389818F93FF92EF9246
:100120000E94530488858F938F818F938E818F9344
:100130008D818F931F930F930E9453042FEF8FE7AE
:1001400097E0215080409040E1F700C000000FB6DA
:10015000F894DEBF0FBECDBFCCCF90BD89B988E18A
:100160008AB98EE880BD08955D9BFECF8CB9089555
:100170005F9BFECF8CB10895CF93C82F8A3039F0A2
:100180008C2F0E94B40090E080E0CF9108958DE024
:100190000E94B400F5CF0E94B80090E008950E943C
:1001A000B8000E94B400FBCF82E086B987B991E025
:1001B0009BBB2FE73AE196E0215030409040E1F7B9
:1001C00000C0000017B82FE73AE196E02150304018
:1001D0009040E1F700C0000095E59BBB2FE73AE1B6
:1001E00096E0215030409040E1F700C0000087B910
:1001F000089585B7806885BF80B7806280BF089505
:10020000CF92DF92EF92FF920F931F93CF93DF93E2
:100210008DE491E00E9469040E94F8036C010E9441
:10022000FD03D0E0C0E010E000E00F2EF4E6EF2E7A
:10023000F1E0FF2EF02D05C02196C11598E0D907F9
:10024000F1F00E94F803FE01F85E808320812817F8
:1002500099F399279F938F931F922F93DF93CF93B7
:10026000FF92EF920E9453040F5F1F4F8DB79EB70E
:1002700008960FB6F8949EBF0FBE8DBFDDCFC601A6
:100280000E94FD03D0E0C0E0F12CE12C0F2EFEE92E
:10029000CF2EF1E0DF2EF02D05C02196C11598E09C
:1002A000D907F1F00E94F803FE01F85E20812817BB
:1002B000A1F399279F938F931F922F93DF93CF934F
:1002C000DF92CF920E9453048FEFE81AF80A8DB79D
:1002D0009EB708960FB6F8949EBF0FBE8DBFDDCFB8
:1002E000FF92EF921F930F938CED91E09F938F936A
:1002F0000E9453040F900F900F900F900F900F904B
:10030000DF91CF911F910F91FF90EF90DF90CF90F1
:100310000895CF93DF9389E392E00E946904C0E0DF
:10032000D0E185EA8883E7E9FAE33197F1F700C085
:100330000000A096C115F8E1DF07A1F783E592E080
:100340000E94690481E692E00E94690485EA88833C
:10035000E7E9FAE33197F1F700C00000A096C11574
:10036000F0E2DF07A1F78CE792E00E9469042FE535
:100370008AEE90E0215080409040E1F700C00000FC
:10038000DF91CF9108958D9A8FB581608FBD8EB525
:1003900088608EBD8FB580688FBD8FB58F7B8FBD18
:1003A0008EB581608EBD8FE790E09BBD8ABDB89809
:1003B000C0980895CF93DF93CDB7DEB728970FB6D7
:1003C000F894DEBF0FBECDBFE0E0F0E110824081C7
:1003D00020910110809103106091021030E03A8367
:1003E000298350E05C834B8370E07E836D8390E0D3
:1003F00098878F833A815C817E81988528960FB695
:10040000F894DEBF0FBECDBFDF91CF910895EF927C
:10041000FF920F931F93CF93DF93CDB7DEB7609713
:100420000FB6F894DEBF0FBECDBF8C017B010E94DA
:10043000DA0129873A874B875C876D877E878F87AC
:10044000988BE985FA852B853C852E153F05D4F1DF
:100450002E193F0944E6429FC001439F900D11248D
:1004600068EF70E06E197F090E944303462FF72E54
:10047000E017F107CCF598012E1B3F0B5CE9520306
:10048000C001539F900D1124B801675471090E9457
:1004900043039D853E858F8528893E832887262FA7
:1004A000372F5F2D692F7E81988560960FB6F8945F
:1004B000DEBF0FBECDBFDF91CF911F910F91FF9097
:1004C000EF900895C701821B930B9C014CE94203F6
:1004D000C001439F900D1124B701635471090E941C
:1004E0004303462FF72EC4CFE01BF10B24E62E9FCB
:1004F000C0012F9F900D112465EF70E0601B710B00
:100500000E944303C6CFEF92FF920F931F93CF93A6
:10051000DF93CDB7DEB728970FB6F894DEBF0FBED6
:10052000CDBF29833A834B835C8329813A818B81B8
:100530009C81E816F90684F08E159F05E4F081E0B1
:1005400090E00217130754F084E090E02017310781
:100550002CF490E080E002C082E090E028960FB694
:10056000F894DEBF0FBECDBFDF91CF911F910F91E9
:10057000FF90EF90089583E090E0F0CF4F925F926C
:100580006F927F92AF92BF92CF92DF92EF92FF92E3
:100590000F931F93CF93DF93CDB7DEB760970FB65E
:1005A000F894DEBF0FBECDBF04E610E0412C512C05
:1005B0003201F12CE12CD12CC12CB12CA12C0E94A8
:1005C000DA0129873A874B875C876D877E878F871B
:1005D000988B83EC99E00197F1F700C000008B85C0
:1005E0009C85A80EB91E89859A85C80ED91E8F854F
:1005F0009889E80EF91E8D859E85092E000CAA0BA0
:10060000BB0B480E591E6A1E7B1E01501109B9F61C
:1006100024E630E0C501B9010E944303B62E7A8377
:10062000C601B9010E944303062F7C83C701B901AB
:100630000E944303162F7E83C301B20124E630E0FB
:1006400040E050E00E945703822F38872F832B2DE4
:100650003A81402F5C81612F7E81988560960FB62C
:10066000F894DEBF0FBECDBFDF91CF911F910F91E8
:10067000FF90EF90DF90CF90BF90AF907F906F9002
:100680005F904F90089597FB072E16F4009407D0C3
:1006900077FD09D00E94760307FC05D03EF49095C3
:1006A00081959F4F0895709561957F4F0895052E10
:1006B00097FB1EF400940E946E0357FD07D00E9422
:1006C0008A0307FC03D04EF40C946E0350954095BA
:1006D000309521953F4F4F4F5F4F089590958095EE
:1006E000709561957F4F8F4F9F4F0895AA1BBB1B3D
:1006F00051E107C0AA1FBB1FA617B70710F0A61B22
:10070000B70B881F991F5A95A9F780959095BC0142
:10071000CD010895A1E21A2EAA1BBB1BFD010DC03D
:10072000AA1FBB1FEE1FFF1FA217B307E407F507A1
:1007300020F0A21BB30BE40BF50B661F771F881F7D
:10074000991F1A9469F760957095809590959B0113
:10075000AC01BD01CF0108958F929F92AF92BF92DD
:10076000CF92DF92EF92FF92CF93DF93EC016881FB
:1007700079818A819B81611571058105910521F43B
:1007800064E279ED8BE597E02DE133EF41E050E055
:100790000E94570349015A019B01AC01A7EAB1E449
:1007A0000E945A086B017C01ACEEB4EFA5019401E4
:1007B0000E946808DC01CB018C0D9D1DAE1DBF1D84
:1007C000B7FF03C00197A109B04888839983AA8322
:1007D000BB839F77DF91CF91FF90EF90DF90CF9019
:1007E000BF90AF909F908F9008950E94AC030895A2
:1007F00080E091E00E94AC030895B0E0A0E0809317
:10080000000190930101A0930201B09303010895A8
:100810000F931F93CF93DF93009759F461157105E0
:1008200041F4F0E0E0E0CF01DF91CF911F910F9113
:1008300008958B01EC016EE070E081E090E00E9491
:100840006E06FC01892B69F380E88383011511058D
:1008500071F01387028781E8838380918C029091E5
:100860008D02892B21F4F0938D02E0938C02209766
:10087000D1F2D187C08783818260838380918E0289
:1008800090918F02892B79F6F0938F02E0938E027C
:100890008091900290919102892B29F6F093910218
:1008A000E0939002C0CFB0E0A0E0E9E5F4E00C9462
:1008B0007D08AE014B5F5F4FFA0161917191AF010D
:1008C00080918E0290918F020E949404E2E00C9439
:1008D00099080F931F93CF93DF93E0918E02F091CD
:1008E0008F022381EC0110E000E021FD08C00FEF32
:1008F0001FEF14C00995892B11F00FEF1FEF89919D
:1009000060918E0270918F02DB011896ED91FC913F
:100910008111F0CF8AE00995892B49F7C801DF9151
:10092000CF911F910F910895ABE0B0E0EAE9F4E0B8
:100930000C946D087C013B018A01FC011782168230
:10094000838181FFC8C1CE0101965C01F7019381CB
:10095000F30193FD859193FF81913F01882309F471
:1009600053C1853239F493FD859193FF81913F0105
:10097000853229F4B70190E00E94CC07E7CF912C93
:10098000212C312CFFE1F31538F08B3211F190F46A
:10099000803209F1833229F137FC3CC020ED280F69
:1009A0002A3050F536FE20C08AE0989E200D112492
:1009B000922E06C08D3291F0803371F7689430F832
:1009C000F30193FD859193FF81913F018111DACF6E
:1009D00021C0689431F8689432F8F2CF689433F803
:1009E000EFCF689434F8ECCFEAE02E9E200D11246E
:1009F000222E689435F8E4CF8E3229F436FC04C1F7
:100A0000689436F8DDCF8C3619F4689437F8D8CF6F
:100A10008836B1F2982F9F7D95549330E0F083365D
:100A2000A1F18337C1F1833509F063C02801F2E0F9
:100A30004F0E511CF801C080D180692D70E036FC4A
:100A400002C06FEF7FEFC6010E94AF074C016894B0
:100A500037F882010AC00C5F1F4FFFE3F983882437
:100A60008394912C6501E89437F833FE2DC0522C05
:100A70008114910471F5552009F468CFB70180E223
:100A800090E00E94CC075A94F6CFF80180818983C8
:100A90000E5F1F4FE4CF2801F2E04F0E511CF8010A
:100AA000C080D180692D70E036FC02C06FEF7FEF0F
:100AB000C6010E94C1074C018201D5CFB70180E277
:100AC00090E00E94CC072A942814190409F0B0F78A
:100AD000CECFF60137FC859137FE81916F01B701CA
:100AE00090E00E94CC0751105A94F1E08F1A9108BF
:100AF000BFCF843619F0893609F077C0F80137FE88
:100B00006BC060817181828193810C5F1F4FF32DD7
:100B1000FF763F2E97FF09C090958095709561955F
:100B20007F4F8F4F9F4F689437F82AE030E0A50140
:100B30000E94FC07C82ECA188C2C432C36FE0CC011
:100B4000E89440F8C91440F434FE05C032FC03C0F8
:100B5000F32DFE7E4F2E892C44FE95C0FE01EC0D38
:100B6000F11D8081803309F087C0242D297E422E1B
:100B7000842D8870582E43FC95C040FE8FC09C2C5D
:100B8000821418F42C0C922C981844FE91C0B701D2
:100B900080E390E00E94CC0742FE09C088E790E025
:100BA00041FE02C088E590E0B7010E94CC07C9145D
:100BB00008F48AC0CA94D12C9FEFC91AD90ACA0C6A
:100BC000DB1CF60182916F01B70190E00E94CC0717
:100BD000AC14BD04B1F74FCF60817181072E000CBA
:100BE000880B990B0E5F1F4F92CFD32CE894D4F84B
:100BF0002AE030E0853739F1232D297FD22E8F3638
:100C000001F148F48835A9F0F701868197812B9688
:100C1000E2E10C948908803749F08837A9F7D4FEBF
:100C200002C06894D2F820E130E00DC06894D4F896
:100C3000F6CF34FE03C0822F8660D82E20E132E04A
:100C400002C028E030E0F801D7FE0FC0608171815A
:100C5000828193810C5F1F4FA5010E94FC07C82E63
:100C6000CA183D2CE89437F867CF6081718190E015
:100C700080E00E5F1F4FF0CF42FC02C0839478CF1C
:100C80008394839475CF842D867809F471CFF6CF41
:100C9000B70180E290E00E94CC0783948214C0F3F5
:100CA000512C73CF522C5818821408F46ECFF8CF01
:100CB000842D867809F47BCF8BE241FE80E247FCED
:100CC0008DE2B70190E071CFB70180E390E00E9420
:100CD000CC079A946CCF8FEF9FEF99CF0F931F9310
:100CE000CF93DF93869F8001879F100D969F100DF5
:100CF0001124C8010E948A06EC01009729F0A8017E
:100D000070E060E00E94BA07CE01DF91CF911F91A1
:100D10000F9108950F931F93CF93DF938230910526
:100D200010F482E090E0E0919402F091950230E0BE
:100D300020E0B0E0A0E0309799F42115310509F4E6
:100D40004AC0281B390B24303105D8F58A819B8194
:100D50006115710589F1FB0193838283FE0111C046
:100D6000408151810281138148175907E0F04817EB
:100D7000590799F4109761F012960C9312971396F5
:100D80001C933296CF01DF91CF911F910F9108955F
:100D90000093940210939502F4CF2115310551F080
:100DA0004217530738F0A901DB019A01BD01DF01A9
:100DB000F801C1CFEF01F9CF90939502809394028F
:100DC000CDCFFE01E20FF31F8193919322503109A1
:100DD00039832883D7CF2091920230919302232B1D
:100DE00041F4209106013091070130939302209342
:100DF000920220910401309105012115310541F441
:100E00002DB73EB74091080150910901241B350BC5
:100E1000E0919202F0919302E217F307A0F42E1BE7
:100E20003F0B2817390778F0AC014E5F5F4F24174E
:100E3000350748F04E0F5F1F509393024093920284
:100E4000819391939FCFF0E0E0E09CCFCF93DF932D
:100E50000097E9F0FC01329713821282A09194026C
:100E6000B0919502ED0130E020E01097A1F42081CF
:100E70003181820F931F20919202309193022817A3
:100E8000390709F061C0F0939302E0939202DF9179
:100E9000CF910895EA01CE17DF07E8F54A815B811B
:100EA0009E0141155105B1F7E901FB83EA834991A0
:100EB0005991C40FD51FEC17FD0761F48081918112
:100EC0000296840F951FE90199838883828193811B
:100ED0009B838A83F0E0E0E012968D919C911397BA
:100EE0000097B9F52D913C911197CD010296820F93
:100EF000931F20919202309193022817390739F6F7
:100F0000309751F51092950210929402B09393028B
:100F1000A0939202BCCFD383C28340815181840FBE
:100F2000951FC817D90761F44E5F5F4F888199817B
:100F3000480F591F518340838A819B819383828309
:100F40002115310509F0B0CFF0939502E09394029A
:100F50009ECFFD01DC01C0CF13821282D7CFFC01EE
:100F60000590615070400110D8F7809590958E0FD4
:100F70009F1F0895DC0101C06D9341505040E0F780
:100F80000895FC016150704001900110D8F78095E0
:100F900090958E0F9F1F08950F931F93CF93DF930C
:100FA000182F092FEB018B8181FD09C01FEF0FEF77
:100FB000812F902FDF91CF911F910F91089582FF84
:100FC00014C02E813F818C819D81281739073CF404
:100FD000E881F981CF0101969983888310838E81FE
:100FE0009F8101969F838E83E3CFE885F985812FCA
:100FF0000995892BA1F3DACFFA01AA27283051F1FC
:10100000203181F1E8946F936E7F6E5F7F4F8F4F39
:101010009F4FAF4FB1E03ED0B4E03CD0670F781F98
:10102000891F9A1FA11D680F791F8A1F911DA11D7D
:101030006A0F711D811D911DA11D20D009F46894B6
:101040003F912AE0269F11243019305D3193DEF65E
:10105000CF010895462F4770405D4193B3E00FD014
:10106000C9F7F6CF462F4F70405D4A3318F0495DFF
:1010700031FD4052419302D0A9F7EACFB4E0A695E2
:101080009795879577956795BA95C9F70097610504
:10109000710508959B01AC010A2E0694579547955A
:1010A00037952795BA95C9F7620F731F841F951F4F
:1010B000A01D08950E94A408A59F900DB49F900DB7
:1010C000A49F800D911D11240895B7FF0C945A0818
:1010D0000E945A08821B930B08952F923F924F92C1
:1010E0005F926F927F928F929F92AF92BF92CF92B8
:1010F000DF92EF92FF920F931F93CF93DF93CDB7C1
:10110000DEB7CA1BDB0B0FB6F894DEBF0FBECDBF38
:1011100009942A88398848885F846E847D848C8409
:101120009B84AA84B984C884DF80EE80FD800C8112
:101130001B81AA81B981CE0FD11D0FB6F894DEBFF5
:101140000FBECDBFED010895A29FB001B39FC001B6
:10115000A39F700D811D1124911DB29F700D811DE3
:0A1160001124911D0895F894FFCFAB
:10116A00010000000000960220004A6F797374693A
:10117A00636B20583A2025642525094A6F797374D0
:10118A0069636B20593A20256425250A00536C6946
:10119A0064657220583A202020256409536C6964DA
:1011AA00657220593A20202025640A0A0053746186
:1011BA007274696E67205352414D20746573742EA0
:1011CA002E2E0D0057726974652070686173652050
:1011DA006572726F723A206578745F72616D5B2511
:1011EA0034645D203D2025303258202873686F759D
:1011FA006C642062652025303258290D0A00526538
:10120A007472696576616C207068617365206572B5
:10121A00726F723A206578745F72616D5B2534640F
:10122A005D203D2025303258202873686F756C6424
:10123A002062652025303258290D0A005352414D4B
:10124A00207465737420636F6D706C6574656420B7
:10125A0077697468200D0A253464206572726F728A
:10126A007320696E2077726974652070686173658E
:10127A0020616E64200D0A253464206572726F72D3
:10128A007320696E2072657472696576616C20706C
:10129A00686173650D0A0D0A0054657374696E6797
:1012AA00206D656D6F727920726567696F6E204176
:1012BA00444300414443207465737420646F6E652F
:1012CA000054657374696E67206D656D6F7279205D
:1012DA00726567696F6E205352414D005352414DFA
:0C12EA00207465737420646F6E65000052
:00000001FF
